{
  "contractName": "Manufacturer",
  "abi": [
    {
      "constant": false,
      "inputs": [
        {
          "name": "_code",
          "type": "string"
        },
        {
          "name": "_brand",
          "type": "string"
        },
        {
          "name": "_model",
          "type": "string"
        },
        {
          "name": "_status",
          "type": "uint256"
        },
        {
          "name": "_description",
          "type": "string"
        },
        {
          "name": "_manufactuerName",
          "type": "string"
        },
        {
          "name": "_manufactuerLocation",
          "type": "string"
        },
        {
          "name": "_manufactuerTimestamp",
          "type": "string"
        }
      ],
      "name": "createCode",
      "outputs": [
        {
          "name": "",
          "type": "uint256"
        }
      ],
      "payable": true,
      "stateMutability": "payable",
      "type": "function"
    },
    {
      "constant": true,
      "inputs": [
        {
          "name": "_code",
          "type": "string"
        }
      ],
      "name": "getNotOwnedCodeDetails",
      "outputs": [
        {
          "name": "",
          "type": "string"
        },
        {
          "name": "",
          "type": "string"
        },
        {
          "name": "",
          "type": "uint256"
        },
        {
          "name": "",
          "type": "string"
        },
        {
          "name": "",
          "type": "string"
        },
        {
          "name": "",
          "type": "string"
        },
        {
          "name": "",
          "type": "string"
        }
      ],
      "payable": false,
      "stateMutability": "view",
      "type": "function"
    },
    {
      "constant": true,
      "inputs": [
        {
          "name": "_code",
          "type": "string"
        }
      ],
      "name": "getOwnedCodeDetails",
      "outputs": [
        {
          "name": "",
          "type": "string"
        },
        {
          "name": "",
          "type": "string"
        }
      ],
      "payable": false,
      "stateMutability": "view",
      "type": "function"
    },
    {
      "constant": true,
      "inputs": [
        {
          "name": "_code",
          "type": "string"
        }
      ],
      "name": "getCodeDetails",
      "outputs": [
        {
          "name": "",
          "type": "string"
        },
        {
          "name": "",
          "type": "string"
        },
        {
          "name": "",
          "type": "uint256"
        },
        {
          "name": "",
          "type": "string"
        },
        {
          "name": "",
          "type": "string"
        },
        {
          "name": "",
          "type": "string"
        },
        {
          "name": "",
          "type": "string"
        }
      ],
      "payable": false,
      "stateMutability": "view",
      "type": "function"
    },
    {
      "constant": false,
      "inputs": [
        {
          "name": "_code",
          "type": "string"
        },
        {
          "name": "_hashedEmailRetailer",
          "type": "string"
        }
      ],
      "name": "addRetailerToCode",
      "outputs": [
        {
          "name": "",
          "type": "uint256"
        }
      ],
      "payable": true,
      "stateMutability": "payable",
      "type": "function"
    },
    {
      "constant": false,
      "inputs": [
        {
          "name": "_hashedEmail",
          "type": "string"
        },
        {
          "name": "_retailerName",
          "type": "string"
        },
        {
          "name": "_retailerLocation",
          "type": "string"
        }
      ],
      "name": "createRetailer",
      "outputs": [
        {
          "name": "",
          "type": "uint256"
        }
      ],
      "payable": true,
      "stateMutability": "payable",
      "type": "function"
    },
    {
      "constant": true,
      "inputs": [
        {
          "name": "_code",
          "type": "string"
        }
      ],
      "name": "getRetailerDetails",
      "outputs": [
        {
          "name": "",
          "type": "string"
        },
        {
          "name": "",
          "type": "string"
        }
      ],
      "payable": false,
      "stateMutability": "view",
      "type": "function"
    }
  ],
  "bytecode": "0x608060405234801561001057600080fd5b50612015806100206000396000f300608060405260043610610083576000357c0100000000000000000000000000000000000000000000000000000000900463ffffffff1680631099968914610088578063285e9e16146100b85780637ab9c57c146100f6578063b3e19d1a14610139578063b5bd438b14610169578063c196873814610199578063ea788dd1146101dc575b600080fd5b6100a2600480360361009d9190810190611c86565b61021a565b6040516100af9190611ef5565b60405180910390f35b3480156100c457600080fd5b506100df60048036036100da9190810190611b42565b610475565b6040516100ed929190611e25565b60405180910390f35b34801561010257600080fd5b5061011d60048036036101189190810190611b42565b61077b565b6040516101309796959493929190611e5c565b60405180910390f35b610153600480360361014e9190810190611b83565b610e4a565b6040516101609190611ef5565b60405180910390f35b610183600480360361017e9190810190611bef565b610ed9565b6040516101909190611ef5565b60405180910390f35b3480156101a557600080fd5b506101c060048036036101bb9190810190611b42565b610fd9565b6040516101d39796959493929190611e5c565b60405180910390f35b3480156101e857600080fd5b5061020360048036036101fe9190810190611b42565b6116a8565b604051610211929190611e25565b60405180910390f35b600080888160010190805190602001906102359291906118c8565b508781600201908051906020019061024e9291906118c8565b50868160000181905550858160030190805190602001906102709291906118c8565b50848160040190805190602001906102899291906118c8565b50838160050190805190602001906102a29291906118c8565b50828160060190805190602001906102bb9291906118c8565b508060018b6040518082805190602001908083835b6020831015156102f557805182526020820191506020810190506020830392506102d0565b6001836020036101000a03801982511681845116808217855250505050505090500191505090815260200160405180910390206000820154816000015560018201816001019080546001816001161561010002031660029004610359929190611948565b5060028201816002019080546001816001161561010002031660029004610381929190611948565b50600382018160030190805460018160011615610100020316600290046103a9929190611948565b50600482018160040190805460018160011615610100020316600290046103d1929190611948565b50600582018160050190805460018160011615610100020316600290046103f9929190611948565b5060068201816006019080546001816001161561010002031660029004610421929190611948565b5060078201816007019080546001816001161561010002031660029004610449929190611948565b5060088201816008019080546104609291906119cf565b50905050600191505098975050505050505050565b60608060026001846040518082805190602001908083835b6020831015156104b2578051825260208201915060208101905060208303925061048d565b6001836020036101000a038019825116818451168082178552505050505050905001915050908152602001604051809103902060070160405180828054600181600116156101000203166002900480156105435780601f10610521576101008083540402835291820191610543565b820191906000526020600020905b81548152906001019060200180831161052f575b5050915050908152602001604051809103902060000160026001856040518082805190602001908083835b602083101515610593578051825260208201915060208101905060208303925061056e565b6001836020036101000a038019825116818451168082178552505050505050905001915050908152602001604051809103902060070160405180828054600181600116156101000203166002900480156106245780601f10610602576101008083540402835291820191610624565b820191906000526020600020905b815481529060010190602001808311610610575b50509150509081526020016040518091039020600101818054600181600116156101000203166002900480601f0160208091040260200160405190810160405280929190818152602001828054600181600116156101000203166002900480156106cf5780601f106106a4576101008083540402835291602001916106cf565b820191906000526020600020905b8154815290600101906020018083116106b257829003601f168201915b50505050509150808054600181600116156101000203166002900480601f01602080910402602001604051908101604052809291908181526020018280546001816001161561010002031660029004801561076b5780601f106107405761010080835404028352916020019161076b565b820191906000526020600020905b81548152906001019060200180831161074e57829003601f168201915b5050505050905091509150915091565b60608060006060806060806001886040518082805190602001908083835b6020831015156107be5780518252602082019150602081019050602083039250610799565b6001836020036101000a03801982511681845116808217855250505050505090500191505090815260200160405180910390206001016001896040518082805190602001908083835b60208310151561082c5780518252602082019150602081019050602083039250610807565b6001836020036101000a038019825116818451168082178552505050505050905001915050908152602001604051809103902060020160018a6040518082805190602001908083835b60208310151561089a5780518252602082019150602081019050602083039250610875565b6001836020036101000a03801982511681845116808217855250505050505090500191505090815260200160405180910390206000015460018b6040518082805190602001908083835b60208310151561090957805182526020820191506020810190506020830392506108e4565b6001836020036101000a038019825116818451168082178552505050505050905001915050908152602001604051809103902060030160018c6040518082805190602001908083835b6020831015156109775780518252602082019150602081019050602083039250610952565b6001836020036101000a038019825116818451168082178552505050505050905001915050908152602001604051809103902060040160018d6040518082805190602001908083835b6020831015156109e557805182526020820191506020810190506020830392506109c0565b6001836020036101000a038019825116818451168082178552505050505050905001915050908152602001604051809103902060050160018e6040518082805190602001908083835b602083101515610a535780518252602082019150602081019050602083039250610a2e565b6001836020036101000a0380198251168184511680821785525050505050509050019150509081526020016040518091039020600601868054600181600116156101000203166002900480601f016020809104026020016040519081016040528092919081815260200182805460018160011615610100020316600290048015610b1e5780601f10610af357610100808354040283529160200191610b1e565b820191906000526020600020905b815481529060010190602001808311610b0157829003601f168201915b50505050509650858054600181600116156101000203166002900480601f016020809104026020016040519081016040528092919081815260200182805460018160011615610100020316600290048015610bba5780601f10610b8f57610100808354040283529160200191610bba565b820191906000526020600020905b815481529060010190602001808311610b9d57829003601f168201915b50505050509550838054600181600116156101000203166002900480601f016020809104026020016040519081016040528092919081815260200182805460018160011615610100020316600290048015610c565780601f10610c2b57610100808354040283529160200191610c56565b820191906000526020600020905b815481529060010190602001808311610c3957829003601f168201915b50505050509350828054600181600116156101000203166002900480601f016020809104026020016040519081016040528092919081815260200182805460018160011615610100020316600290048015610cf25780601f10610cc757610100808354040283529160200191610cf2565b820191906000526020600020905b815481529060010190602001808311610cd557829003601f168201915b50505050509250818054600181600116156101000203166002900480601f016020809104026020016040519081016040528092919081815260200182805460018160011615610100020316600290048015610d8e5780601f10610d6357610100808354040283529160200191610d8e565b820191906000526020600020905b815481529060010190602001808311610d7157829003601f168201915b50505050509150808054600181600116156101000203166002900480601f016020809104026020016040519081016040528092919081815260200182805460018160011615610100020316600290048015610e2a5780601f10610dff57610100808354040283529160200191610e2a565b820191906000526020600020905b815481529060010190602001808311610e0d57829003601f168201915b505050505090509650965096509650965096509650919395979092949650565b6000816001846040518082805190602001908083835b602083101515610e855780518252602082019150602081019050602083039250610e60565b6001836020036101000a03801982511681845116808217855250505050505090500191505090815260200160405180910390206007019080519060200190610ece9291906118c8565b506001905092915050565b60008083816000019080519060200190610ef49291906118c8565b5082816001019080519060200190610f0d9291906118c8565b50806002866040518082805190602001908083835b602083101515610f475780518252602082019150602081019050602083039250610f22565b6001836020036101000a038019825116818451168082178552505050505050905001915050908152602001604051809103902060008201816000019080546001816001161561010002031660029004610fa1929190611948565b5060018201816001019080546001816001161561010002031660029004610fc9929190611948565b5090505060019150509392505050565b60608060006060806060806001886040518082805190602001908083835b60208310151561101c5780518252602082019150602081019050602083039250610ff7565b6001836020036101000a03801982511681845116808217855250505050505090500191505090815260200160405180910390206001016001896040518082805190602001908083835b60208310151561108a5780518252602082019150602081019050602083039250611065565b6001836020036101000a038019825116818451168082178552505050505050905001915050908152602001604051809103902060020160018a6040518082805190602001908083835b6020831015156110f857805182526020820191506020810190506020830392506110d3565b6001836020036101000a03801982511681845116808217855250505050505090500191505090815260200160405180910390206000015460018b6040518082805190602001908083835b6020831015156111675780518252602082019150602081019050602083039250611142565b6001836020036101000a038019825116818451168082178552505050505050905001915050908152602001604051809103902060030160018c6040518082805190602001908083835b6020831015156111d557805182526020820191506020810190506020830392506111b0565b6001836020036101000a038019825116818451168082178552505050505050905001915050908152602001604051809103902060040160018d6040518082805190602001908083835b602083101515611243578051825260208201915060208101905060208303925061121e565b6001836020036101000a038019825116818451168082178552505050505050905001915050908152602001604051809103902060050160018e6040518082805190602001908083835b6020831015156112b1578051825260208201915060208101905060208303925061128c565b6001836020036101000a0380198251168184511680821785525050505050509050019150509081526020016040518091039020600601868054600181600116156101000203166002900480601f01602080910402602001604051908101604052809291908181526020018280546001816001161561010002031660029004801561137c5780601f106113515761010080835404028352916020019161137c565b820191906000526020600020905b81548152906001019060200180831161135f57829003601f168201915b50505050509650858054600181600116156101000203166002900480601f0160208091040260200160405190810160405280929190818152602001828054600181600116156101000203166002900480156114185780601f106113ed57610100808354040283529160200191611418565b820191906000526020600020905b8154815290600101906020018083116113fb57829003601f168201915b50505050509550838054600181600116156101000203166002900480601f0160208091040260200160405190810160405280929190818152602001828054600181600116156101000203166002900480156114b45780601f10611489576101008083540402835291602001916114b4565b820191906000526020600020905b81548152906001019060200180831161149757829003601f168201915b50505050509350828054600181600116156101000203166002900480601f0160208091040260200160405190810160405280929190818152602001828054600181600116156101000203166002900480156115505780601f1061152557610100808354040283529160200191611550565b820191906000526020600020905b81548152906001019060200180831161153357829003601f168201915b50505050509250818054600181600116156101000203166002900480601f0160208091040260200160405190810160405280929190818152602001828054600181600116156101000203166002900480156115ec5780601f106115c1576101008083540402835291602001916115ec565b820191906000526020600020905b8154815290600101906020018083116115cf57829003601f168201915b50505050509150808054600181600116156101000203166002900480601f0160208091040260200160405190810160405280929190818152602001828054600181600116156101000203166002900480156116885780601f1061165d57610100808354040283529160200191611688565b820191906000526020600020905b81548152906001019060200180831161166b57829003601f168201915b505050505090509650965096509650965096509650919395979092949650565b6060806002836040518082805190602001908083835b6020831015156116e357805182526020820191506020810190506020830392506116be565b6001836020036101000a03801982511681845116808217855250505050505090500191505090815260200160405180910390206000016002846040518082805190602001908083835b602083101515611751578051825260208201915060208101905060208303925061172c565b6001836020036101000a0380198251168184511680821785525050505050509050019150509081526020016040518091039020600101818054600181600116156101000203166002900480601f01602080910402602001604051908101604052809291908181526020018280546001816001161561010002031660029004801561181c5780601f106117f15761010080835404028352916020019161181c565b820191906000526020600020905b8154815290600101906020018083116117ff57829003601f168201915b50505050509150808054600181600116156101000203166002900480601f0160208091040260200160405190810160405280929190818152602001828054600181600116156101000203166002900480156118b85780601f1061188d576101008083540402835291602001916118b8565b820191906000526020600020905b81548152906001019060200180831161189b57829003601f168201915b5050505050905091509150915091565b828054600181600116156101000203166002900490600052602060002090601f016020900481019282601f1061190957805160ff1916838001178555611937565b82800160010185558215611937579182015b8281111561193657825182559160200191906001019061191b565b5b5090506119449190611a3f565b5090565b828054600181600116156101000203166002900490600052602060002090601f016020900481019282601f1061198157805485556119be565b828001600101855582156119be57600052602060002091601f016020900482015b828111156119bd5782548255916001019190600101906119a2565b5b5090506119cb9190611a3f565b5090565b828054828255906000526020600020908101928215611a2e5760005260206000209182015b82811115611a2d5782829080546001816001161561010002031660029004611a1d929190611948565b50916001019190600101906119f4565b5b509050611a3b9190611a64565b5090565b611a6191905b80821115611a5d576000816000905550600101611a45565b5090565b90565b611a8d91905b80821115611a895760008181611a809190611a90565b50600101611a6a565b5090565b90565b50805460018160011615610100020316600290046000825580601f10611ab65750611ad5565b601f016020900490600052602060002090810190611ad49190611a3f565b5b50565b600082601f8301121515611aeb57600080fd5b8135611afe611af982611f3d565b611f10565b91508082526020830160208301858383011115611b1a57600080fd5b611b25838284611f88565b50505092915050565b6000611b3a8235611f7e565b905092915050565b600060208284031215611b5457600080fd5b600082013567ffffffffffffffff811115611b6e57600080fd5b611b7a84828501611ad8565b91505092915050565b60008060408385031215611b9657600080fd5b600083013567ffffffffffffffff811115611bb057600080fd5b611bbc85828601611ad8565b925050602083013567ffffffffffffffff811115611bd957600080fd5b611be585828601611ad8565b9150509250929050565b600080600060608486031215611c0457600080fd5b600084013567ffffffffffffffff811115611c1e57600080fd5b611c2a86828701611ad8565b935050602084013567ffffffffffffffff811115611c4757600080fd5b611c5386828701611ad8565b925050604084013567ffffffffffffffff811115611c7057600080fd5b611c7c86828701611ad8565b9150509250925092565b600080600080600080600080610100898b031215611ca357600080fd5b600089013567ffffffffffffffff811115611cbd57600080fd5b611cc98b828c01611ad8565b985050602089013567ffffffffffffffff811115611ce657600080fd5b611cf28b828c01611ad8565b975050604089013567ffffffffffffffff811115611d0f57600080fd5b611d1b8b828c01611ad8565b9650506060611d2c8b828c01611b2e565b955050608089013567ffffffffffffffff811115611d4957600080fd5b611d558b828c01611ad8565b94505060a089013567ffffffffffffffff811115611d7257600080fd5b611d7e8b828c01611ad8565b93505060c089013567ffffffffffffffff811115611d9b57600080fd5b611da78b828c01611ad8565b92505060e089013567ffffffffffffffff811115611dc457600080fd5b611dd08b828c01611ad8565b9150509295985092959890939650565b6000611deb82611f69565b808452611dff816020860160208601611f97565b611e0881611fca565b602085010191505092915050565b611e1f81611f74565b82525050565b60006040820190508181036000830152611e3f8185611de0565b90508181036020830152611e538184611de0565b90509392505050565b600060e0820190508181036000830152611e76818a611de0565b90508181036020830152611e8a8189611de0565b9050611e996040830188611e16565b8181036060830152611eab8187611de0565b90508181036080830152611ebf8186611de0565b905081810360a0830152611ed38185611de0565b905081810360c0830152611ee78184611de0565b905098975050505050505050565b6000602082019050611f0a6000830184611e16565b92915050565b6000604051905081810181811067ffffffffffffffff82111715611f3357600080fd5b8060405250919050565b600067ffffffffffffffff821115611f5457600080fd5b601f19601f8301169050602081019050919050565b600081519050919050565b6000819050919050565b6000819050919050565b82818337600083830152505050565b60005b83811015611fb5578082015181840152602081019050611f9a565b83811115611fc4576000848401525b50505050565b6000601f19601f83011690509190505600a265627a7a7230582068494b5f6e429e067d161ca36e7b7ac6c4e497f118eefcec6752fdb23c3497306c6578706572696d656e74616cf50037",
  "source": "pragma solidity ^0.4.22;\r\npragma experimental ABIEncoderV2;\r\n\r\ncontract Manufacturer {\r\n    address owner;\r\n\r\n    struct codeObj {\r\n        uint status;\r\n        string brand;\r\n        string model;\r\n        string description;\r\n        string manufactuerName;\r\n        string manufactuerLocation;\r\n        string manufactuerTimestamp;\r\n        string retailer;\r\n        string[] customers;\r\n    }\r\n\r\n    struct retailerObj {\r\n        string name;\r\n        string location;\r\n    }\r\n\r\n    mapping (string => codeObj) codeArr;\r\n    mapping (string => retailerObj) retailerArr;\r\n\r\n    // Function to create a new code for the product\r\n    function createCode(string _code, string _brand, string _model, uint _status, string _description, string _manufactuerName, string _manufactuerLocation, string _manufactuerTimestamp) public payable returns (uint) {\r\n        codeObj newCode;\r\n        newCode.brand = _brand;\r\n        newCode.model = _model;\r\n        newCode.status = _status;\r\n        newCode.description = _description;\r\n        newCode.manufactuerName = _manufactuerName;\r\n        newCode.manufactuerLocation = _manufactuerLocation;\r\n        newCode.manufactuerTimestamp = _manufactuerTimestamp;\r\n        codeArr[_code] = newCode;\r\n        return 1;\r\n    }\r\n\r\n    // Function for showing product details if the person scanning the product is not the owner\r\n    function getNotOwnedCodeDetails(string _code) public view returns (string, string, uint, string, string, string, string) {\r\n        return (codeArr[_code].brand, codeArr[_code].model, codeArr[_code].status, codeArr[_code].description, codeArr[_code].manufactuerName, codeArr[_code].manufactuerLocation, codeArr[_code].manufactuerTimestamp);\r\n    }\r\n\r\n    // Function for showing product details if the person scanning the product is the owner\r\n    function getOwnedCodeDetails(string _code) public view returns (string, string) {\r\n        return (retailerArr[codeArr[_code].retailer].name, retailerArr[codeArr[_code].retailer].location);\r\n    }\r\n\r\n    function getCodeDetails(string _code) public view returns (string, string, uint, string, string, string, string) {\r\n        return (codeArr[_code].brand, codeArr[_code].model, codeArr[_code].status, codeArr[_code].description, codeArr[_code].manufactuerName, codeArr[_code].manufactuerLocation, codeArr[_code].manufactuerTimestamp);\r\n    }\r\n\r\n    // Function for creating a new retailer\r\n    function addRetailerToCode(string _code, string _hashedEmailRetailer) public payable returns (uint) {\r\n        codeArr[_code].retailer = _hashedEmailRetailer;\r\n        return 1;\r\n    }\r\n\r\n    function createRetailer(string _hashedEmail, string _retailerName, string _retailerLocation) public payable returns (uint) {\r\n        retailerObj newRetailer;\r\n        newRetailer.name = _retailerName;\r\n        newRetailer.location = _retailerLocation;\r\n        retailerArr[_hashedEmail] = newRetailer;\r\n        return 1;\r\n    }\r\n\r\n    function getRetailerDetails(string _code) public view returns (string, string) {\r\n        return (retailerArr[_code].name, retailerArr[_code].location);\r\n    }\r\n\r\n    // Cannot directly compare strings in Solidity\r\n    // This function hashes the 2 strings and then compares the 2 hashes\r\n    function compareStrings(string a, string b) internal returns (bool) {\r\n    \treturn keccak256(a) == keccak256(b);\r\n    }\r\n\r\n    // Function to delete an element from an array\r\n    function remove(uint index, string[] storage array) internal returns(bool) {\r\n        if (index >= array.length)\r\n            return false;\r\n\r\n        for (uint i = index; i < array.length-1; i++) {\r\n            array[i] = array[i+1];\r\n        }\r\n        delete array[array.length-1];\r\n        array.length--;\r\n        return true;\r\n    }\r\n}",
  "sourcePath": "E:\\Sem 6\\Mini Project\\Implementation\\BlockCheck-Final\\Truffle final\\contracts\\Manufacturer.sol",
  "compiler": {
    "name": "solc",
    "version": "0.4.26+commit.4563c3fc.Emscripten.clang"
  },
  "schemaVersion": "3.4.4",
  "updatedAt": "2022-04-29T16:36:38.349Z",
  "networkType": "ethereum",
  "devdoc": {
    "methods": {}
  },
  "userdoc": {
    "methods": {}
  }
}